:020000040800F2
:10000000F00900204501000817320008FB25000810
:1000100015320008C1080008A535000800000000DE
:100020000000000000000000000000001B3200087B
:10003000090A0008000000001932000849320008CF
:100040005F0100085F0100085F0100085F01000810
:100050005F0100085F010008090E00085F01000849
:100060005F0100085F0100087D0E00085F010008C5
:100070005F0100085F0100085F0100085F010008E0
:100080005F0100085F0100085F0100085F010008D0
:100090005F0100085F0100085F0100085F010008C0
:1000A0005F0100085F0100085F0100085F010008B0
:1000B0005F010008AD3200085F0100085F01000821
:1000C0005F0100085F0100085F0100085F01000890
:1000D0005F010008353500085F010008553500084C
:1000E000410E00085F0100085F0100085F01000881
:1000F0005F0100085F0100085F0100085F01000860
:100100005F0100085F0100085F0100085F0100084F
:100110005F0100085F0100085F0100085F0100083F
:100120005F0100085F0100085F0100085F0100082F
:10013000DFF80CD000F03AFB004800477545000896
:10014000F00900200648804706480047FEE7FEE722
:10015000FEE7FEE7FEE7FEE7FEE7FEE7FEE7FEE777
:10016000AB32000831010008202A04DB203A21FAD2
:1001700002F00021704721FA02F3D040C2F12002C0
:100180009140084319467047D2B201E000F8012BB4
:10019000491EFBD270470022F6E710B513460A4607
:1001A00004461946FFF7F0FF204610BD30B505465E
:1001B0002A460B4612F8010B13F8014B08B1A04276
:1001C000F8D01CB1002802D06D1CF1E7284630BDE4
:1001D000421C10F8011B0029FBD1801A704770B532
:1001E000064603F0CFFD046805460A22002130468A
:1001F00000F047FA2C6070BD2DE9FE4F804681EA81
:100200000300C00F0C46009021F0004123F0004590
:10021000B8EB0200A94105D24046214690461C4653
:100220000B46024623F00040104347D0270DC7F38A
:100230000A00C3F30A510290401A019040286BDA79
:10024000C3F3130040F4801B0098924620B10023B2
:10025000D2EB030A63EB0B0B01985946C0F1400245
:10026000504600F0EDF906460D4650465946019AB3
:1002700000F0F5F910EB08006141002487EA115203
:1002800084EAE7731A4340D0009A62B3019A012AC4
:100290004FEA075215DC001B61EB02014FF00042F0
:1002A00002EA0752CDE90042001C41F580113246B6
:1002B0002B4600F02DFA03B0BDE8F08F40462146F2
:1002C000F9E7001B61EB0201001C41F580130018E7
:1002D0005B412018A2F5001747EB030140EAD570F7
:1002E000B6196D4111E06D084FEA360645EAC07552
:1002F0004FEA0752001B61EB0201001C41F580111F
:1003000049084FEA30000019514132462B4603B0EC
:10031000BDE8F04F00F0EDB9009801224000002345
:10032000D0EB020263EBE073009821464FEAE074E1
:10033000B8EB000061EB0401E9E783F000435BE701
:1003400081F0004158E72DE9FE4F81EA030404F0F3
:10035000004421F0004100944FF0000B23F00043D3
:1003600050EA01045ED052EA03045BD0C3F30A549E
:10037000C1F30A552C44A4F2F3340194A0FB0254B7
:10038000C1F3130141F48011C3F3130343F4801349
:1003900001FB024400FB034E840A970A44EA81549D
:1003A00047EA8357A4FB076802958D0A05FB07857A
:1003B0004FEA932C04FB0C542705029D4FEA065884
:1003C00047EA1637B5EB08056EEB070C870E920E61
:1003D00047EA811742EA8312A7FB0201B6EB0B0141
:1003E00064EB00042B0D43EA0C335E1844EB1C5005
:1003F000DA465146E7FB0201C5F313044FEA0B331B
:1004000043EA14534FEA0432019C43EA0603A4F181
:100410000C040294009CCDE900B400F079F903B01B
:10042000BDE8F08F00200146F9E72DE9F04D81EAA3
:10043000030404F0004B21F0004514464FF0000A7D
:1004400023F0004150EA050220D054EA01021DD0F9
:10045000C5F30A570246C5F31303C1F31300C1F3F2
:100460000A5640F4801543F48013A7EB0608101BCE
:10047000D64608F2FD3873EB050002D308F10108F7
:1004800001E092185B41B8F1000F03DA0020014649
:10049000BDE8F08D00204FF48011064684460EE042
:1004A000171B73EB050705D3121B63EB050306430C
:1004B0004CEA010C49084FEA300092185B4150EABF
:1004C0000107EDD152EA030012D082EA040083EA68
:1004D0000501084305D0101BAB4106D201220023C1
:1004E00006E000224FF0004302E06FF001025310DB
:1004F0001AEB06004CEB085110EB0A0041EB0B0124
:10050000BDE8F04D00F0F5B80EB5C10F80EAE0701F
:100510000844CA07002140F233438DE80E000A4622
:100520000B4600F0F5F803B000BD0EB540F23341C4
:1005300002910021CDE900110A460B4600F0E8F8CF
:1005400003B000BD70B5C1F30A5201F000450024AC
:10055000C1F3130140F2FF3341F480119A4201DAF2
:10056000002070BD40F233439A42A2F2334203DCD2
:100570005242FFF7F9FD00E090402C43F1D0404299
:1005800070BDC1F30A5210B5C1F3130140F2FF333D
:1005900041F480119A4201DA002010BD40F2334349
:1005A0009A42A2F2334203DC5242FFF7DDFD10BD56
:1005B000904010BD30B5041E71F1000404DB4FF013
:1005C0000044404264EB0101141E73F1000405DB9A
:1005D0001C464FF00043524263EB04038B4208BFBA
:1005E000824230BD30B5041E71F1000404DB4FF0CF
:1005F0000044404264EB0101141E73F1000405DB6A
:100600001C464FF00043524263EB0403994208BF7B
:10061000904230BD30B50B46014600202022012417
:1006200009E021FA02F59D4205D303FA02F5491BC0
:1006300004FA02F52844151EA2F10102F1DC30BDD6
:10064000202A04DB203A00FA02F100207047914092
:10065000C2F1200320FA03F3194390407047202A87
:1006600006DBCB17203A41FA02F043EAE07306E0DA
:1006700041FA02F3D040C2F12002914008431946EA
:1006800070472DE9F04791460F4680460446002604
:1006900014F8015B2DB100F09BF80068405DC007C5
:1006A000F6D12B2D02D02D2D18D0641E4A46394686
:1006B000204600F091F827B13968A14201D1C7F86E
:1006C000008071054FF002040BD54042002803DD85
:1006D00003F058FB0460A007BDE8F08746F480668D
:1006E000E4E70028F8DA03F04DFB04606FF0004007
:1006F000F2E710B5141E73F1000408DA401C41F152
:10070000000192185B411A4301D120F0010010BD95
:100710002DE9F04D92469B4611B1B1FA81F202E00B
:10072000B0FA80F220329046FFF78AFF04460F4667
:1007300040EA0A0041EA0B0153465A46084313D0E7
:10074000114653EA010019D0C8F140025046FFF7A4
:100750000BFD05460E46504659464246FFF770FFD0
:10076000084305D0012004E020463946BDE8F08D5D
:100770000020054346EAE0762C4337430A98630598
:10078000E40AA0EB08000022FD0A44EA47540A30BC
:1007900002D500200146E9E7010510196941DDE9AC
:1007A000084500196941BDE8F04DA2E7064C074D28
:1007B00006E0E06840F0010394E807009847103431
:1007C000AC42F6D3FFF7B8FC84600008A4600008D0
:1007D00000487047845F00082DE9F05F824600788A
:1007E000002715468B460AF10104B946302801D08E
:1007F0009DB113E014F8010B0127782803D0582885
:1008000001D045B10AE00DB1102D07D10027102508
:1008100014F8010B02E0082500E00A250026B04686
:100820000EE005FB080005FB06F1012701EB104671
:100830001FFA80F8B6F5803F00D3B94614F8010BD3
:10084000294600F02FF80028EBDABBF1000F05D0A5
:100850000FB1641E00E05446CBF80040B9F1000F20
:1008600006D003F08FFA02210160C81EBDE8F09F98
:1008700048EA0640FAE770B521F0004303430CD084
:10088000C1F30A550024D5EB040564EB0403D61725
:10089000AD1AB34102DB0020014670BD201841EBC8
:1008A000025170BD3A2800D2303820F02002412A8F
:1008B00001D3A2F13700884201D34FF0FF307047D7
:1008C000FEE7000008B51D49684602F04CFF90B3F2
:1008D000BDF80200411E31290CD2BDF80000A0F184
:1008E000BF01312901D2062008BD1F38632823D259
:1008F000052008BDA0F20F11312912D2BDF8000069
:10090000A0F10B013B2901D2012008BDA0F151014A
:100910003B2901D2022008BD97383B280CD2032086
:1009200008BD6538772807D2BDF80000333877282E
:1009300002D2042008BDFFE70020FBE708000020EA
:1009400008B53049684602F00EFFC0B3BDF802009A
:10095000A0F129013B2911D2BDF80000411E452913
:1009600001D2012008BDA0F15101452901D2022088
:1009700008BDA138452843D2032008BDA0F16F016E
:100980003B2911D2BDF80000411E452901D20420A7
:1009900008BDA0F15101452901D2052008BDA138AB
:1009A00045282DD2062008BDA0F1B5013B2912D261
:1009B000BDF80000411E452902D2072008BD1FE0F6
:1009C000A0F15101452901D20820F7E7A1384528B7
:1009D00016D20920F2E7FB383B2811D2BDF80000FF
:1009E000411E452901D20A20E8E7A0F1510145291D
:1009F00001D20020E2E7A138452801D20B20DDE733
:100A00000C20DBE708000020704701B5009801E0EA
:100A1000401E00900028FBD108BD000038B50446F8
:100A20001B49684602F09FFE80B3BDF802000146F4
:100A3000401E312806D2BDF80020BF3A312A01D22B
:100A4000022038BD1D2806D2BDF8000033386328C7
:100A500001D2012038BD34B1012C08D0022C0BD0BA
:100A6000032C0ED012E0BDF8000000220CE0BDF80F
:100A700000004FF4784207E0BDF800004FF4FC623C
:100A800002E0BDF800001F2201F0B9FF002038BDD0
:100A90000800002010B504A000F008F8BDE81040E0
:100AA0004FF4FA6000F020BB4154000008B506A1E5
:100AB000096800910146054802F075FD6946034842
:100AC00002F071FD08BD00000D0A0000C404002002
:100AD00001A0FFF7EBBF000041542B434950434CAA
:100AE0004F53450000B585B008B1012200E0002257
:100AF00004A1684603F00EF96846FFF7D7FF05B07A
:100B000000BD000041542B4349504D55583D2564CC
:100B10000000000010B54FF4FA74204600F0E4FA2B
:100B200004A1054802F03FFD2046BDE8104000F05A
:100B3000DBBA00002B2B2B00C4040020134810B597
:100B4000816986B041F008018161816901F0080185
:100B50000491816941F00801816180690C4C00F0C9
:100B6000080004904FF48070009001200190032051
:100B700003906946204600F00BFB60150090694623
:100B8000204600F005FB06B010BD0000001002403A
:100B9000000C014010B5FFF7D1FF02F017FD064C25
:100BA00001221102204600F0F4FB20460122BDE89C
:100BB0001040510200F0EDBB000C014000B59FB0A9
:100BC0000B46024604A1684603F0A4F86846FFF706
:100BD0006DFF1FB000BD000041542B43574A4150E8
:100BE0003D222573222C222573220000F0B5B9B0D6
:100BF0000F4606461D461446642101A8FFF7CBFAAE
:100C000016B1012E0BD103E03B4610A2009402E086
:100C10003B460FA200940FA101A803F07BF8052D1D
:100C200006D201AB2A460FA11AA803F073F804E01C
:100C300001AA11A11AA803F06DF81AA8FFF736FF50
:100C400040F6B83000F050FA39B0F0BD54435000CF
:100C500055445000222573222C222573222C257303
:100C60000000000041542B43495053544152543D1D
:100C700025642C257300000041542B4349505354E4
:100C80004152543D2573000010B540B1012809D0F0
:100C9000022809D105A0BDE81040FFF707BF06A054
:100CA000FFF704FF07A0F6E710BD000041542B43F7
:100CB000574D4F44453D330041542B43574D4F440E
:100CC000453D320041542B43574D4F44453D310083
:100CD00010B5FFF7DFFE0120FFF7D6FF40F6B8346E
:100CE000204600F001FA16A118A0FFF767FF204682
:100CF00000F0FAF90020FFF7F5FE204600F0F4F9C5
:100D0000052316A216A10020FFF770FF41F28830DC
:100D100000F0EAF900F046F84FF4FA6000F0E4F968
:100D200013A002F0E7FF00F05DF81D48FFF7BEFEDC
:100D30004FF47A6000F0D8F9BDE8104000F018B91F
:100D400032343431323836350000000054502D4CE6
:100D5000696E6B5F3446434200000000383000008B
:100D60007175616E2E73756E696E672E636F6D009F
:100D70007365742045535038323636204F4B2C6EF5
:100D80006F7720676F20696E746F205061737354A2
:100D900068726F756768204D6F6465210A000000F6
:100DA0003460000810B508A0FFF780FE4FF4FA6425
:100DB000204600F099F908A0FFF778FE2046BDE82C
:100DC000104000F091B9000041542B4349504D4F61
:100DD00044453D310000000041542B4349505345E8
:100DE0004E44000010B54FF480610648FFF7D3F978
:100DF00004480021A0F80214A0F80014A0F804147C
:100E000010BD0000780000200B4910B50868C2072B
:100E10000A4802D00268521C02600268032A01DDFF
:100E2000002202600120086000F0A4F9BDE8104033
:100E3000012000F0A1B90000140401405800002076
:100E40000C4910B5086882040B4802D54268521C50
:100E500042604268012A01DD002242604FF40054E2
:100E60000C60204600F086F92046BDE8104000F0F6
:100E700083B900001404014058000020102000F045
:100E80007BB972B6FEE7000030B5B3F5804F05D0F0
:100E90006FF0704140F82210002030BD8C690B6863
:100EA0008D6823434C688989240144EA052423433F
:100EB00043EA014150F82230014C23401943E9E74D
:100EC0000000F0CF10B50A6850F8223023F001037B
:100ED00040F822308C68082C23D000234A68224333
:100EE000CC681C430B6922431A434B690E4C1A43CE
:100EF000CB691A430B6A1A434B6A1A438B6A1A432B
:100F0000CB6A1A430B6B1A438B6913434A6B09680C
:100F10001A4350F82130A343134340F821300020F6
:100F200010BD4023DAE700007FFF0F0030B5D1E9A4
:100F3000003443EA04138C688D89240244EA054492
:100F400023430C8A094D00EB820005EB0454234334
:100F50000C7D6D0105EB0464896923430B434168F3
:100F600001F040410B434360002030BD0000F0FF22
:100F700010B50AA10C48FFF719F948B100F11303A5
:100F8000991C8A1C184600F05DF80849886010BD5D
:100F9000BDE8104006A002F0ADBE000073797354A6
:100FA000696D6531000000007800002038000020E5
:100FB000676574206E65742074696D65206661696B
:100FC0006C6564210D0A00007CB50026009613A113
:100FD00014480196FFF7EAF8851D13A11148FFF7A1
:100FE000E5F800F10A0401A815F8011B8155761CEB
:100FF000022EF9DBFFF7F3F80E4D6946286000205A
:1010000014F8012B0A54401C0228F9DB0846FFF7AC
:10101000E6F8686008A002F06DFE7CBD74656D7036
:10102000000000007800002068756D6964697479BB
:1010300000000000380000200D0A6E65746E6574B3
:101040000D0A000070B516460D46FFF7C8F842F2CB
:10105000107190FBF1F42846FFF7C1F8642190FB72
:10106000F1F53046FFF7BBF84FF461614C43C5EB37
:10107000051104EB8101084470BD000010B5FFF7B5
:1010800049FD4FF4FA64204600F02EF8FFF720FDEA
:10109000204600F029F805230BA20CA10020FFF741
:1010A000A5FD41F2883000F01FF8FFF77BFEFFF747
:1010B00099FE0C48FFF7FAFC600000F015F8BDE857
:1010C0001040FFF781BF0000383000006170692ECA
:1010D0006F70656E776561746865726D61702E6F93
:1010E00072670000885F000870B5044600F056F98A
:1010F0000546601C02D004480078044400F04EF914
:10110000401BA042FAD370BD6000002030B585B00E
:10111000002000900190029003901248016800297D
:101120001ED1012101601048416941F48071416183
:101130004069022400F4807004904FF68070CDE97D
:101140000004032569460395084800F021F84CF691
:10115000B370CDE9000469460395054800F018F81E
:1011600005B030BD500000200010024000180140C2
:101170000014014070470000044910B50A6802429B
:1011800002D00860FFF7F6FF10BD00001404014014
:101190002DE9F84FDFF8C891002409F1040A0AF19B
:1011A000040B23460F270BF1040ED1E00125A540C7
:1011B00006EA0502AA4276D1DFF8A8C14E68A6EB7E
:1011C0000C0866452BD00DDC032E34D005DC36B37D
:1011D000012E19D0022E2FD11BE0112E16D0122E67
:1011E0002AD119E0B8F5881F19D006DCB8F5803F80
:1011F00015D0B8F5801F1FD111E0B8F5001F0ED033
:10120000B8F5041F18D10AE0CB6815E0CB681B1DA8
:1012100012E0CB6808330FE0CB680C330CE08B682E
:101220002BB1012B4FF0080303D0456104E00423E8
:1012300002E0056100E00023FF2A01D8064601E034
:1012400000F104064FEA840501D9A5F12005D6F87E
:10125000008007FA05FC28EA0C0803FA05F548EABD
:101260000508C6F800804D68ED0070D53E4DAE69AA
:1012700046F00106AE61AD6924F0030605F00105F4
:1012800000953A4D06EB050CDCF80850A607360F22
:1012900007FA06F825EA0805DFF8D480404503D1AF
:1012A0004FF0000825E052E0DFF8C880404502D149
:1012B0004FF001081DE0DFF8C080404502D14FF03B
:1012C000020816E0DFF8B480404502D14FF0030871
:1012D0000FE0DFF8AC80404502D14FF0040808E091
:1012E000DFF8A080404502D14FF0050801E04FF043
:1012F000060808FA06F848EA0508CCF808804D68A0
:10130000D9F80060ED034D4601D5164300E0964341
:101310002E604D68DAF80060AD03554601D51643DE
:1013200000E096432E604D68DBF80060ED025D46FC
:1013300001D5164300E096432E604D68DEF800604C
:10134000AD02754601D5164300E096432E60641C3D
:101350000A681646E2407FF429AFBDE8F88F000026
:101360000004014000001110001002400000014084
:1013700000080140000C0140001001400014014031
:1013800000180140001C01408068084000D0012086
:1013900070470AB1016170470904FBE701488068A2
:1013A000704700006000002070B5040025D094F85C
:1013B0003D00002520B984F83C50204600F078FA22
:1013C000242084F83D002068016821F001010160BB
:1013D0002068016841F4004101602068016821F43F
:1013E0000041016000F0D4FB4D4A6168914201D890
:1013F0004C4900E04C49884201D2012070BD4B4964
:101400002368B0FBF1F15E6826F03F060E435E6094
:101410006368934206D94FF4967359434FF47A7335
:10142000B1FBF3F12368491C1E6A26F03F063143E5
:1014300019626168914210D84900401EB0FBF1F278
:10144000521CC2F30B02042A01D2042022E0B0FB9A
:10145000F1F0401CC0F30B001CE0A268F2B301EBFA
:10146000C10303EB0116431EB3FBF6F35B1C43F40D
:1014700080431B0549D092B301EBC10202EB01117D
:10148000401EB0FBF1F0401CC0F30B0040F4804064
:1014900040F400402168CA694CF6FF739A43104338
:1014A000C861D4E9071001432068026822F0C00235
:1014B00011430160D4E9030101432068826848F2C6
:1014C000FF339A4311438160D4E905010843216841
:1014D000CA6822F0FF021043C86001E00EE016E087
:1014E0002068016841F0010101602564202084F832
:1014F0003D00256384F83E50002070BD01EB41069D
:10150000431EB3FBF6F35B1CB3E70120C2E701EB1C
:101510004101401EB0FBF1F0401CC0F30B00B7E7E7
:10152000A086010080841E0000093D0040420F009B
:101530002DE9FF4F83B00025DDE910799A469346E7
:101540000446DDF848800095FFF728FF064694F82A
:101550003D0020287CD11923012285492046009690
:1015600001F05CF90028F5D194F83C0001286FD017
:10157000012084F83C0020680168C90703D1016894
:1015800041F0010101602068016821F400610160FF
:10159000222084F83D00402084F83E0025646762E4
:1015A000A4F82A90608D20857248E062CDE900861B
:1015B00053465A462046049901F038F800287DD158
:1015C000208DDFF8B491202768B1012814D00228BB
:1015D000206801681ED041F4806101602068416983
:1015E00080690090B6E020684169816900910168D6
:1015F00041F400710160ADE02068016821F4806170
:10160000016072B62068416981690091016841F406
:1016100000710AE041F40061016072B6206841691E
:1016200081690091016821F48061016062B691E0F6
:10163000032868D801280CD0022843464FF0000246
:101640004946204600960FD001F0E8F8B0BB10E004
:101650008BE032464146204601F05FF970BB2068BE
:101660000069616A08706CE001F0D8F830BB72B6AE
:1016700034E02068016821F48061016072B620685E
:101680000069616A0870606A401C6062208D401EBB
:101690002085608D401E6085384846F2A81100689C
:1016A000B0FBF1F0C0EBC00000EB80000090401EEA
:1016B000009008D020684069C04300E029E040075E
:1016C0000CD50098F3E744F8305F6773A573206981
:1016D00040F02000206162B625731AE0206801689E
:1016E00041F40071016020680069616A0870606AF5
:1016F000401C6062218D491E2185618D491E6185D6
:1017000062B621681BE032464146204601F005F9E9
:1017100018B1012007B0BDE8F08F20680069616A48
:101720000870606A401C6062218D491E2185618DB0
:10173000491E618521684A69D24352070AD4096962
:101740000170606A401C6062208D401E2085608DA3
:10175000401E6085208D00287FF46AAF84F83D70BC
:1017600084F83E5084F83C50D4E70220D2E70000D1
:10177000020010000000FFFF040001006C000020C8
:101780002DE9FF4F83B09A46DDE911979346044651
:10179000DDF84080FFF702FE054694F83D00202862
:1017A0007FD11923012240492046009501F036F8E7
:1017B000002876D194F83C00012872D0012084F8EA
:1017C0003C0020680168C90703D1016841F00101AC
:1017D00001602068016821F400610160212084F823
:1017E0003D00402084F83E0000262664C4F8248092
:1017F000A4F82A90608D20852C48E062CDE9007520
:1018000053465A462046049900F08EFF70B930E0E6
:101810002A463946204601F0B3F858B1206C042816
:1018200004D12068016841F400710160012007B013
:10183000BDE8F08F606A216800780861606A401C2A
:101840006062218D491E89B22185628D521E62859A
:1018500022685369DB435B070BD469B100781061E0
:10186000606A401C6062208D401E2085608D401E95
:101870006085208D0028CBD12A463946204600F0CD
:10188000A7FF0028CAD154F83D0B016841F400714C
:101890000160202004F81E09E67766770020C6E77D
:1018A000FFE70220C3E70000020010000000FFFF76
:1018B00010B586B00021009101910291039100685A
:1018C000194988422ED1194CE06940F40010E061BA
:1018D000E06900F400100490A06940F00800A061E5
:1018E000A069694600F008000490C0200090122012
:1018F0000190032003900E48FFF74AFCE06940F492
:101900000010E061E06900F400100490206940F4E8
:10191000001020614FF47A70FFF7E6FB206920F495
:101920000010206106B010BD0054004000100240BD
:10193000000C0140024881680278114481607047C0
:1019400060000020074810B5016841F010010160F7
:10195000032000F075F8002000F006F800F024F8ED
:10196000002010BD0020024070B50D4D04464FF41C
:101970007A712878B1FBF0F00A490968B1FBF0F000
:1019800000F020FB48B9102C07D200222146501E3F
:1019900000F036F800206C6070BD012070BD0000C2
:1019A000600000206C0000200C4808B5816941F0FF
:1019B00001018161816901F001010091C16941F07A
:1019C0008051C161C06900F08050009004484168B6
:1019D00021F0E06141F00071416008BD001002405B
:1019E00000000140002809DB00F01F0201219140A6
:1019F0004009800000F1E020C0F8001170470000AD
:101A0000F0B40E4B1B680C46C3F30223C3F1070569
:101A1000042D00D90425191D072901D2002300E057
:101A2000DB1E012606FA05F1491E214099409E4021
:101A3000761E16403143F0BC02F094B90CED00E084
:101A4000064900F0070208684FF6FF03184040EA15
:101A50000220034A10430860704700000CED00E0CC
:101A60000000FA052DE9F0470F46050061D0434E0E
:101A7000306800F00700B84209D2306820F0070053
:101A800038433060306800F00700B84251D1286810
:101A90003B4C810712D5400703D5606840F4E060F5
:101AA00060602878000703D5606840F4605060608B
:101AB0006068A96820F0F000084360602878C007DB
:101AC00028D06868012810D02168022810D0890722
:101AD00000292EDA616821F0030101436160FFF7FC
:101AE0005DFC804641F288390DE021688903EFE70B
:101AF0008901EDE7FFF752FCA0EB0801494502D947
:101B00000320BDE8F0876068696800F00C00B0EB66
:101B1000810FEFD1306800F00700B8420BD9306870
:101B200020F0070038433060306800F00700B8420A
:101B300001D00120E5E72878400705D56068E9680D
:101B400020F4E060084360602878000706D56068EC
:101B5000296920F4605040EAC100606000F038F864
:101B60006168084AC1F30311515CC8400649086026
:101B700006480068FFF7F8FE0020C2E70020024098
:101B800000100240445E00086C0000206400002049
:101B90000448054900684968044AC1F30221515CC0
:101BA000C84070476C00002000100240545E0008DE
:101BB0000448054900684968044AC1F3C221515CE0
:101BC000C84070476C00002000100240545E0008BE
:101BD00012A185B00FC98DE80F0014A0144A006847
:101BE00004905168134801F00C03042B10D0082B0B
:101BF0000ED1C1F38343C9031DF803000AD5516810
:101C000004AAC1F34041515C0A4A5043B0FBF1F0D1
:101C100005B0704708494843FAE70000020304058D
:101C2000060708090A0B0C0D0E0F10100102000028
:101C30000010024000127A0000093D002DE9F84F23
:101C4000040070D02078C04DC00749D06868C0F348
:101C50008100012807D06868C0F38100022809D1FB
:101C60006868C00306D52868800339D560680028F5
:101C7000E7D035E06068B0F5803F0BD010B1B0F52B
:101C8000A02F11D0286820F480302860286820F424
:101C9000802002E0286840F480302860606890B1BD
:101CA000FFF77CFB06460AE0286840F480202860A5
:101CB000F0E700BFFFF772FB801B642873D8286829
:101CC0008003F7D50CE0FFF769FB064605E000BF8F
:101CD000FFF764FB801B6428F0D828688003F7D4E2
:101CE00020789A4E80074FF001094FF0000839D54F
:101CF000686810F00C0F07D06868C0F381000228F4
:101D000009D16868C00306D42868800714D5206903
:101D1000012808D110E02069B0B1C6F80090FFF7A3
:101D20003DFB074605E00AE1FFF738FBC01B022830
:101D3000C4D828688007F7D52868616920F0F800C2
:101D400040EAC10028600DE0C6F80080FFF726FBDE
:101D5000074604E0FFF722FBC01B022823D82868AF
:101D60008007F7D4207800072CD57948A169D9B12C
:101D7000C0F80090FFF712FB074604E0FFF70EFBE8
:101D8000C01B02280FD8686A8007F7D571484FF446
:101D9000FA510068B0FBF1F0009000BF0098411EBE
:101DA0000091FAD20EE080E0C0F80080FFF7F6FA6A
:101DB000074604E0FFF7F2FAC01B022875D8686AEC
:101DC0008007F7D42078400760D5E8690027C00075
:101DD00008D4E86940F08050E861E869012700F024
:101DE000805000905C480168C90513D4016883469F
:101DF00041F480710160FFF7D1FA824606E000BF2E
:101E0000FFF7CCFAA0EB0A0064284ED8DBF80000FC
:101E1000C005F5D5E06801280AD008B1052813D01F
:101E2000286A20F001002862286A20F0040002E0FD
:101E3000286A40F001002862E06841F2883B98B1CE
:101E4000FFF7ACFA82460BE0286A40F004002862F3
:101E5000EEE700BFFFF7A2FAA0EB0A0159455AD8F6
:101E6000286A8007F6D50CE0FFF798FA824605E06D
:101E7000FFF794FAA0EB0A0159454CD8286A80076D
:101E8000F6D41FB1E86920F08050E861E06988B3BA
:101E90006968C1F38101022944D00228C6F8608034
:101EA00004D0FFF77BFA044638E034E0FFF776FA17
:101EB000074604E0FFF772FAC01B02282BD82868F7
:101EC0008001F7D4206AB0F5803F05D16868A16829
:101ED00020F4003008436860D4E9080108436968C9
:101EE00021F4741108436860C6F86090FFF756FA51
:101EF000044606E025E000BFFFF750FA001B022869
:101F000009D828688001F7D51BE000BFFFF746FA23
:101F1000001B022802D90320BDE8F88F2868800141
:101F2000F4D40EE00128F7D06868226A00F480310A
:101F3000914204D1616A00F47010884201D00120FE
:101F4000EAE70020E8E700000010024000004242FB
:101F5000800442426C0000200070004070B51546BD
:101F60000E46040007D0A069B0F5807F03D094F836
:101F7000410010B107E0012070BD002084F840004E
:101F8000204600F01DF804F108012068FEF79AFFD2
:101F90003146A2682068FEF7C9FFD4E9010229464C
:101FA000236BFEF771FFA168206850F8212042F0F2
:101FB000010240F82120012084F84100002070BD7A
:101FC000FFF7A4B810B5401EB0F1807F01D3012007
:101FD00010BD4FF0E02460610F21601701F0C2FED8
:101FE0000020A06107202061002010BD70477047CD
:101FF00070B590F83C20012A2CD0012480F83C4098
:10200000022280F83D2003685A689D6822F070061D
:102010000A6832435A60104B02689A420ED00F4B46
:102020009A420BD0B2F1804F08D00D4B9A4205D0A6
:102030000C4B9A4202D00C4B9A4204D1496825F0CD
:1020400080031943916080F83D40002180F83C10E6
:10205000084670BD022070BD002C014000340140D4
:102060000004004000080040000C004010B50400CF
:1020700003D094F83D0010B107E0012010BD00200E
:1020800084F83C00204600F01FF8022084F83D0050
:10209000211D206801F010F9012084F8460084F821
:1020A0003E0084F83F0084F8400084F8410084F842
:1020B000420084F8430084F8440084F8450084F822
:1020C0003D00002010BD000008B500680B498842A3
:1020D00012D10B48C16941F00201C161C0690022FF
:1020E00000F00200009011461D20FFF789FCBDE8BA
:1020F00008401D20FFF776BC08BD0000000400402A
:102100000010024090F83D10012901D001207047D5
:10211000022180F83D100168CA6842F00102CA60DD
:1021200000680E4988420ED00D4988420BD0B0F1AC
:10213000804F08D00B49884205D00B49884202D015
:102140000A49884204D1816801F00701062903D0B9
:10215000016841F00101016000207047002C01403E
:10216000003401400004004000080040000C004022
:1021700070B5044690F83C00012817D0012584F87A
:102180003C50022084F83D002068826822F07702EB
:1021900022F47F4282600868502830D00DDC20286D
:1021A0004DD005DC98B310283BD148E0022070BD2B
:1021B000302844D0402834D139E0602828D0702815
:1021C00006D0B0F5805F2CD0B0F5005F29D10AE0D1
:1021D000CB68D1E90121206801F0B4F8206881685A
:1021E00041F0770109E0CB68D1E90121206801F0D5
:1021F000A9F82068816841F48041816011E0CA68D3
:102200004968206801F0B0F85021206807E016E026
:10221000CA684968206801F0B8F86021206801F0B8
:102220009BF884F83D50002084F83C0070BDCA68DB
:102230004968206801F098F840212068EFE722689B
:1022400001461046EBE7704770B504460068016927
:102250004FF00005C943890715D4C168C9438907F0
:1022600011D4E91E01610120207720688069800770
:10227000204602D0FFF7E7FF04E000F098F8204680
:1022800000F096F8257720680169C943490717D4FB
:10229000C168C943490713D46FF0040101610220EA
:1022A00020772068806910F4407F204602D0FFF735
:1022B000CAFF04E000F07BF8204600F079F82577AB
:1022C00020680169C943090716D4C168C9430907D1
:1022D00012D46FF008010161042020772068C069E2
:1022E0008007204602D0FFF7AEFF04E000F05FF861
:1022F000204600F05DF8257720680169C943C906CA
:1023000017D4C168C943C90613D46FF01001016125
:10231000082020772068C06910F4407F204602D052
:10232000FFF791FF04E000F042F8204600F040F88B
:10233000257720680169C943C90708D1C168C94325
:10234000C90704D1891E0161204600F033F82068D6
:102350000169C943090609D4C168C943090605D4FE
:102360006FF0800101612046FFF740FE206801699F
:10237000C943490609D4C168C943490605D46FF069
:1023800040010161204600F029F820680169C94335
:1023900089060BD4C168C943890607D46FF02001B0
:1023A00001612046BDE87040FFF721BE70BD704757
:1023B0007047000000680749884209D106488168D3
:1023C000491C81600168012902D14168491C4160B2
:1023D000704700000004004044000020704770B5C2
:1023E000040004D094F83D00002510B106E001205F
:1023F00070BD84F83C50204600F022F8242084F878
:102400003D002068C16821F40051C160204601F000
:1024100003F82068016921F4904101612068416955
:1024200021F02A0141612068C16841F40051C16076
:102430002564202084F83D0084F83E00002070BD13
:102440002DE9F04F054600683A493B4C0126032729
:1024500085B04FF000084FF0020A4FF480698842BF
:1024600030D1A06940F48040A061A06900F48040B0
:102470000490A06940F00400A061A06900F004008D
:102480000490A06940F00400A061A069DFF8ACB03E
:1024900000F0040004904815CDE9000A694658464A
:1024A000CDE90267FEF774FECDE90098694658460B
:1024B000FEF76EFE012200212520FFF7A1FA25205C
:1024C000FFF790FA1E492868884230D1E06940F44D
:1024D0008020E061E06900F480200490A06940F071
:1024E0000800A061A06900F008000490A06940F015
:1024F0000800A061A069CDF8009000F00800CDE9C7
:102500000370104CCDE901A669462046FEF740FE57
:10251000E014CDE9000869462046FEF739FE0122A5
:1025200000212720FFF76CFA2720FFF75BFA05B0A0
:10253000BDE8F08F00380140001002400008014063
:1025400000480040000C01402DE9F843044690F893
:102550003D001F4616460D4620284CD1C5B1BEB1E0
:1025600094F83C00012846D0012084F83C004FF04C
:102570000008C4F84080212084F83D00FEF70EFFDB
:10258000A6848146E684A068B0F5805F03D004E0AD
:102590000120BDE8F883206928B12E465FF00005D0
:1025A00084F83C800EE00026FAE78021204600F007
:1025B0008FFFA0B9AEB116F8010B21684860E08C1E
:1025C000401EE084E08C4B464FF00002009700284C
:1025D000EBD14FF04001204600F07AFF30B10320EC
:1025E000D7E735F8020BC0F30800E6E7202084F8AF
:1025F0003D000020CDE70220CBE7FEE701684A69F5
:10260000D24352050FD46FF480624A61002140F832
:10261000301F202242738173026942F0040202617A
:102620000173012070470020704700002DE9F84F2A
:102630000446006889460B9D01689846174641F498
:10264000806101602068016841F48071016000953B
:102650004FF0011B0022594620460A9B00F0DEF88D
:102660004FF4007A40B120680068C00501D5C4F875
:1026700040A00320BDE8F88F216809F0FE00086142
:102680002B46284920460A9A00F0FCF8F0BB206847
:102690004169806900902A4620460A9900F070F945
:1026A00040B1206C04283AD12068016841F40071DF
:1026B000016034E0FEB2B8F1010F09D02168380A98
:1026C00008612A4620460A9900F05AF90028E8D104
:1026D000206806612A4620460A9900F051F9002830
:1026E000DFD12068016841F480710160009500220B
:1026F000594620460A9B00F091F80028B3D1216882
:1027000009F0FF0040F00100086100E007E02B46FF
:10271000044920460A9A00F0B5F80028AAD0012002
:10272000A8E70000020001002DE9F8430446006814
:102730000D46DDE9089701689846164641F4807118
:1027400001604B4600224FF001112046009700F037
:1027500065F848B120680068C00502D54FF40070E4
:1027600020640320BDE8F883216805F0FE000861BD
:102770003B464A461549204600F084F888B920684F
:102780004169806900903A464946204600F0F8F8D1
:1027900048B1206C042804D12068016841F400711C
:1027A00001600120DEE7F5B2B8F1010F09D0216820
:1027B000300A08613A464946204600F0E1F8002810
:1027C000E7D1206805610020CCE70000020001008D
:1027D00070B516460D4604460DE02046FFF70EFF85
:1027E00008B1012070BD681C05D0FEF7D7FD801B25
:1027F000A84207D835B120684069C0434007ECD4EF
:10280000002070BD002044F8300F20216173A073B8
:10281000216941F0200121612073E2E72DE9F047B1
:102820001E4690460D460446C1F30747DDF820904A
:1028300008E0701C06D0FEF7B1FDA0EB0900B04225
:102840000FD876B12068012F18D0806925EA0000E2
:102850000004000C14D000214145EAD00020BDE85E
:10286000F087002044F8300F20216173A0732169A4
:1028700041F02001216120730120F0E74069E5E784
:102880000121E9E72DE9F0479A4691460E460446B4
:1028900000254FF02008C1F3074725E02068406974
:1028A000C043400514D42068016841F40071016000
:1028B00021686FF480604861256384F83D8084F866
:1028C0003E50206C40F00400206484F83C501FE02F
:1028D000B9F1FF3F08D0FEF761FDA0EB0A014945C1
:1028E0000CD8B9F1000F09D02068012F13D08069EE
:1028F00026EA00000004000C0BD0CFE744F8305F5C
:1029000084F80D80A573206940F0200020612573B4
:102910000120BDE8F0874069EAE72DE9F041002594
:1029200090460E460446202717E04069C043C00683
:102930000CD454F8301B6FF01000486144F8105963
:102940006777A577206A2062257717E0FEF726FDD6
:10295000A0EB0800B04208D83EB120684169C943E5
:102960004906E2D40020BDE8F08144F8305F677387
:10297000A573206940F02000206125730120F2E753
:1029800070B516460D4604460DE02046FFF736FEAC
:1029900008B1012070BD681C05D0FEF7FFFC801B4C
:1029A000A84207D835B120684069C0430006ECD47E
:1029B000002070BD002044F8300F20216173A07307
:1029C000216941F0200121612073E2E7044B4FF4BB
:1029D000805108B1002200E001221846FEF7D9BC60
:1029E0000014014070B51D461446049E00F0B0F975
:1029F00004FB05F03146BDE8704000F043B92DE915
:102A0000F0410D4604464E1E471E9046B1B2B8B284
:102A100000F08FF8B1B24246204600F08AF8B1B219
:102A2000661CB0B2424600F084F8B8B2424629466D
:102A300000F07FF842462946204600F07AF8B0B20E
:102A40004246294600F075F86D1CA9B2B8B242465C
:102A500000F06FF8A9B24246204600F06AF8A9B229
:102A6000B0B24246BDE8F04100F063B870B5203A1C
:102A7000D4B21023082200F06BF92C20C106088084
:102A80000C490D4B01EB041500204FF6FF742A5C36
:102A90000021D60702D01F261E8000E01C80491CA2
:102AA0005208C9B20829F4D3401CC0B21028EED392
:102AB00070BD00005458000800000260F0B5203AD4
:102AC0001C46D6B210230822059D00F041F92C20A7
:102AD000C10608800A490B4B002001EB06160021B5
:102AE000325CD70701D01D8000E01C80491C5208D1
:102AF000C9B20829F5D3401CC0B21028EFD3F0BDED
:102B0000545800080000026078B504464FF4784637
:102B10000A380D4680B2012314220096FFF762FFA7
:102B20000A3DA9B21423012220460096FFF75AFF5E
:102B300078BD10B51446F02806D2B1F5A07F03D2B7
:102B400001231A4600F004F92146BDE81040012097
:102B500000F098B82DE9FE4F161ACDE900104FF09D
:102B600000085D1A47464FF0FF30002E02DD4FF09F
:102B7000010102E003D14FF000018B4602E08346E1
:102B8000C6F10006002D02DD4FF0010002E003D186
:102B90004FF00000824602E08246C5F10005AE42D9
:102BA00001DD344600E02C46601C4FF00009029025
:102BB0001AE000BFDDE900100C9AFFF7BAFFB0443D
:102BC0002F44A04505DD0198A8EB0408584480B2C5
:102BD0000190A74204DD00983F1B504480B2009052
:102BE00009F101001FFA80F902998945E2DDBDE88B
:102BF000FE8F0000F0B516460D4604464FF4A07750
:102C000014E000BF04F10800F02802D900241035B8
:102C1000ADB205F11000B84201D90024254629467D
:102C20002046FFF723FF0834A4B2761C3278002A2E
:102C3000E8D1F0BD2DE9F843994616460D46044605
:102C40004FF4A077DDF8208017E000BF04F1080002
:102C5000F02802D900241035ADB205F11000B842B9
:102C600001D9002425464B4629462046CDF8008050
:102C7000FFF724FF0834A4B2761C3278002AE5D18D
:102C8000BDE8F88310B500222C23DC062380034B1B
:102C900001E01980521C8242FBD310BD000002608B
:102CA00020494FF0C042012806D0022808D003284E
:102CB0000ED0042809D120E036201080C8201FE063
:102CC00036201080682006E008802C201080704795
:102CD00036201080282008802A20108000200880BC
:102CE0000880012008803F2008802B2010800020D1
:102CF000088008800880EF20E6E736201080482012
:102D000008802A2010800020088008800880EF209A
:102D100008802B2010800020088008800120088077
:102D20003F20D1E70000026008B50120FFF74EFE0A
:102D300000F0EAF800F02CF84FF6FF700021009048
:102D40004FF4A073F0220846FFF74CFE08BD0000C8
:102D500070B54FF0C0452A242C800C4C060A268002
:102D6000C6B226801044401E020A2280C0B22080D3
:102D70002B202880080A2080C8B22080C818401E56
:102D8000010A2180C0B2208070BD000000000260F6
:102D900000B54FF0C041CF20088059480022028082
:102DA0008122028030220280ED220A806422028089
:102DB000032202801222028081220280E8220A80FD
:102DC000852202801022028078220280CB220A8093
:102DD000392202802C2202800022028034220280CA
:102DE00002220280F7220A8020220280EA220A8040
:102DF000002202800280B1220A80002202801B226F
:102E00000280B6220A800A220280A2220280C02208
:102E10000A8035220280C1220A8011220280C52246
:102E20000A80452202800280C7220A80A2220280F4
:102E3000F2220A800022028026220A8001220280D9
:102E4000E0220A800F2202802622028024220280B1
:102E50000B2202800E22028009220280542202806C
:102E6000A8220280462202800C22028017220280C1
:102E7000092202800F2202800722028000220280A3
:102E8000E1220A8000220280192202801B22028095
:102E90000422028010220280072202802A2202805D
:102EA0004722028039220280032202800622028009
:102EB000028030220280382202800F2202803622D5
:102EC0000A80C82202802A220A8000220280028010
:102ED0000280EF2202802B220A80002202800280E0
:102EE000012202803F2202803A220A80552202807B
:102EF000112008800348FDF788FD2920088000BDC7
:102F000000000260FCBF020070B50A4C00220221E2
:102F10002046FEF73EFA084D2846FDF776FD0122D1
:102F200002212046FEF735FA2846BDE87040FDF73D
:102F30006CBD000000180140FCBF020000B587B066
:102F40001C216846FDF727F917484FF02041102251
:102F500001601649416000218160C160C0E904122E
:102F60008161C16113020162C0E90913C162016399
:102F7000416381630F20FF230090CDE90103CDE978
:102F800003021120CDE90501002269460648FEF73B
:102F9000E5FF08B1FDF775FF0548C16941F480619F
:102FA000C16107B000BD000008050020040100A0B9
:102FB000000001402DE9F04786B000244D48009400
:102FC000019402940394816941F040018161816917
:102FD00001F040010491816941F010018161816932
:102FE00001F010010491816941F00401816181695E
:102FF00001F004010491816941F008018161816956
:1030000001F008010491816941F02001816180692A
:10301000394F00F020000490002207213846FEF7C7
:10302000B8F9DFF8D890012223214846FEF7B1F91C
:10303000DFF8CCA04FF44058002241465046FEF73E
:10304000A8F9072001250326CDE90005CDE90246B0
:1030500069463846FEF79CF808208DE8310069463D
:103060003846FEF795F8102000902648CDE9010576
:1030700069463846FEF78CF8234F6803CDE9000710
:10308000694602942148FEF783F80095CDE9017462
:1030900069461F48FEF77CF82320CDE90005CDE9FD
:1030A000024669464846FEF773F8CDF8008003965D
:1030B000CDE9015469465046FEF76AF800221146F0
:1030C0000620FEF79DFC0620FEF78CFC0022114630
:1030D0000A20FEF795FC0A20FEF784FC0022114628
:1030E0002820FEF78DFC2820FEF77CFC06B0BDE80A
:1030F000F08700000010024000180140000C014061
:1031000000140140000021100000111000100140C7
:10311000000801400D4810B50B4901600C494160A1
:1031200000214FF480428160C0E903124161816156
:10313000C1610162FEF738F9002803D0BDE81040F4
:10314000FDF79FBE10BD0000005400405005002058
:10315000A086010010B586B00024174800940194A1
:103160000294039404941349059401604721C0E933
:10317000011442F20F71C0E903148461FEF776FF77
:1031800008B1FDF77EFE4FF48050009069460A4872
:10319000FEF7EEFF08B1FDF774FE049404A906489B
:1031A0000594FEF725FF002801D0FDF76AFE06B062
:1031B00010BD000000040040A405002008B514491B
:1031C000684600F0D0FA00280CD0BDF80200A0F14B
:1031D000290163290CD2BDF80000A0F10B0163297D
:1031E00001D2012008BD79386328FBD2022008BD36
:1031F000A1386328FBD2BDF80000A0F10B016329C0
:1032000001D2032008BD79386328FBD2042008BD11
:1032100008000020FEE7FEE77047704708B509493F
:10322000684600F0A0FA58B1BDF80200401E3128EF
:1032300006D2BDF80000BF38312801D2012008BDF8
:10324000002008BD08000020FEF774BB30B58FB029
:1032500028216846FCF79FFF14210AA8FCF79BFF72
:1032600001210804CDE900100024029402250491F4
:10327000CDE907504FF4E01009906846FEF7DEFCF8
:1032800008B172B6FEE70F20CDE90A054FF4806061
:10329000CDE90C4002210AA80E94FEF7E3FB0028BA
:1032A00001D072B6FEE70FB030BD70470148FEF79F
:1032B000CBBF0000A4050020F0B502681C4B1D4DDB
:1032C0001D4E1E4F1E4C4FF0804C984209D0A0421C
:1032D00007D0604505D0A84203D0B04201D0B84223
:1032E00004D122F0700E4A6842EA0E02984209D0D8
:1032F000A04207D0604505D0A84203D0B04201D01B
:10330000B84203D122F44075CA682A434D6922F0BD
:1033100080022A4302608A68C2620A688262984216
:1033200001D0A04201D10969016301214161F0BDD1
:10333000002C01400004004000080040000C004048
:103340000034014010B5846842EA032224F47F442B
:103350000A432243826010BD826822F070020A4351
:1033600042F007018160704710B5036A046A24F0D7
:1033700001040462846924F0F00444EA021423F096
:103380000A020A438461026210BD10B5036A23F089
:10339000100303628369046A23F4704343EA023230
:1033A00024F0A00343EA01118261016210BD000014
:1033B00008B51849684600F0D6F940B3BDF80200D8
:1033C000411E31290CD2BDF80000A0F1BF01312906
:1033D00001D2052008BD1F38632818D2042008BD7B
:1033E000A0F20F10312812D2BDF80000A0F10B019D
:1033F0003B2901D2012008BDA0F151013B2901D296
:10340000022008BD97383B2801D2032008BD0020C8
:1034100008BD00000800002070B50446006801697E
:10342000E26821F44051114301612169A068084319
:10343000616908432168CA6841F20C639A430243F8
:10344000CA6020684169A26921F440711143416159
:103450001E492068884202D1FEF7AAFB01E0FEF770
:1034600097FB00EBC00101EB001260686421800053
:10347000B2FBF0F3B3FBF1F36FF018067343B2FB4A
:10348000F0F5B2FBF0F605EB8305322303EB0515EF
:10349000B5FBF1F5B6FBF1F605F0F00505EB061509
:1034A000B2FBF0F6B2FBF0F0B0FBF1F06FF01802F7
:1034B000504306EB800003EB0010B0FBF1F02168F5
:1034C00000F00F002844886070BD00000038014003
:1034D0002DE9F041984617460E460446069D1DE02C
:1034E000681C1BD02DB1FDF759FFA0EB0800A842C6
:1034F00014D92068C16821F4D071C1602068416985
:1035000021F001014161202084F83D0084F83E0053
:10351000002084F83C000320BDE8F08120680068AA
:1035200036EA000004D00020B842D9D00020F3E7EA
:103530000120F9E7054800680168C943890604D4F9
:1035400040680349C0B209684860704780040020A1
:10355000C4040020104800680168C943890619D4D2
:103560004068C1B20D48B0F80024B2F5806F0ED8A3
:10357000B0F804248154B0F80024521CA0F80024B0
:10358000B0F80424521CC2F30902A0F80424044831
:103590000068416070470000C404002078000020EB
:1035A00080040020FEE72DE9F0410D460746002487
:1035B0004FF47A762919334601223846FEF7C4FFC4
:1035C000641C285D0028F5D1BDE8F08110B50C4CD5
:1035D0000A4820604FF4E13060600020A060E060A5
:1035E0002061A0610C2060612046FEF7F8FE206893
:1035F000C16841F02001C16010BD000000480040DA
:10360000C40400202DE9F0470C46054608880989C6
:103610001646421AE388608901271B1A5A43A38879
:10362000C91A6388181A01FB0020FCF76DFF0022FD
:103630001346C6E90C01FCF7BDFF01D1002783E06A
:1036400028882989E388421A60891B1A5A43AB8863
:10365000C91A6388181A01FB0020FCF755FFC6E958
:10366000000121882089AB880A1A29895B1A5A43EC
:103670002B88C91AA388181A01FB0020FCF744FF05
:10368000C6E902012389AA88A188B5F8088003FB4E
:1036900002F001FB180C608891460CFB00FC2088AE
:1036A00000FB08F2B5F8008003FB182201FB08F1CB
:1036B000E38800FB191002FB03C3618900FB0130A2
:1036C000FCF722FFC6E9040168886989E388421A89
:1036D00060891B1A5A43EB88C91A6388181A01FBC0
:1036E0000020FCF711FFC6E9060121882089EB883C
:1036F0000A1A69895B1A5A436B88C91AA388181A6F
:1037000001FB0020FCF700FFC6E908012289B5F89B
:103710000680A1886B8902FB08F001FB130C60880E
:103720006D880CFB00FC20886943434302FB153283
:10373000E38800FB181002FB03C2618900FB012033
:10374000FCF7E2FEC6E90A013846BDE8F08701B59C
:10375000002004E00B21491EC9B2FCD2401C009994
:103760008842F7D308BD2DE9F84380460C4601276F
:10377000684600F06FF8E0B3BDF80200FCF7D5FE34
:10378000D4E90223FCF7DFFD05460E46BDF8000034
:10379000FCF7CBFED4E90023FCF7D5FD2A463346DF
:1037A000FCF72AFDD4E90423FCF726FDFCF7E9FE2B
:1037B000A8F80000BDF80200FCF7B7FED4E9082322
:1037C000FCF7C1FD05460E46BDF80000FCF7ADFE56
:1037D000D4E90623FCF7B7FD2A463346FCF70CFD77
:1037E000D4E90A23FCF708FDFCF7CBFEA8F8020099
:1037F00001E0FFE700273846BDE8F88370B500F028
:1038000047FA134E00252A4604213046FDF7C1FD34
:10381000012211463046FDF7BCFD002400220121A3
:103820003046FDF7B6FD08213046FDF7ADFDC4F189
:103830000B018840284385B2012211463046FDF72E
:10384000A8FD641CE4B20C2CE8D3284670BD00002F
:10385000001801402DE9F0418AB0054600262821D4
:103860006846FCF798FCDFF820816C469020FFF753
:10387000C5FF07460120FFF76AFFD020FFF7BEFF14
:1038800024F8167004EB4601761C8882F6B21021EB
:103890004046FDF779FD08B90A2EE7D310214046CE
:1038A000FDF772FD10B13949002008700A2E03D0CF
:1038B00000200AB0BDE8F081BDF90010BDF9140088
:1038C0008C4662460346012634F916708F4201DAAF
:1038D000394602E0974200DD3A46761CF6B20A2EDF
:1038E000F2D3012604EB4607B7F914709F4201DAC0
:1038F0003B4602E0874200DD3846761CF6B20A2ECF
:10390000F0D3BDF90240BDF90460BDF9067064440E
:103910003E443444BDF908603444BDF90A6034447F
:10392000BDF90C603444BDF90E603444BDF910603B
:103930003444BDF912603444611A891AC9082980D7
:10394000BDF91410BDF91620BDF91A401144BDF996
:10395000182022441144BDF91C201144BDF91E2039
:103960001144BDF920201144BDF922201144BDF9B4
:1039700024201144BDF926201144C91A081AC00890
:103980006880012095E70000001801400000002039
:103990002DE9F04FABB03C21B4225020F025ADF81A
:1039A0000810ADF81420ADF80A00ADF80C10ADF811
:1039B0001020ADF816004FF4A076ADF80E50ADF81B
:1039C00012500120FFF76CF96FF00F0000EB560A60
:1039D000680800240A9070084FF6FF7B4FF478497E
:1039E00006900021D84633462A460846CDF800B056
:1039F000FEF7F8FF8FA73846FCF7EAFBC0F1070097
:103A000005EBC000C0F34F0043463A46CDF80090A6
:103A10000699FFF70FF9621C8CA127A800F07AF92C
:103A2000CDF800901FFA8AF1434627AA0A98FFF7BB
:103A300001F98748FFF78BFE02A800EB840130F8FC
:103A400024004988FFF760F821A800EB8407384676
:103A5000FFF700FF0028FAD0641CE4B2042CC0D3A6
:103A600012AA21A902A8FFF7CDFDDDE91E0100225F
:103A70001346FCF79FFD7DD0BDF89200FCF755FD85
:103A800000910B90DDE91423FCF75DFC04460F4622
:103A9000BDF89000FCF749FD0991DDE91223019082
:103AA00092462093FCF74FFC22463B46FCF7A4FBD2
:103AB000DDE91623FCF7A0FBDDE91E43984622460C
:103AC000FCF7B3FCFCF75DFDDDE91A2387B2009932
:103AD0000B98FCF738FC0B91DDE91823109009993D
:103AE0000198FCF730FC0B9B109AFCF785FBDDE995
:103AF0001C23FCF781FB43462246FCF796FCFCF7AF
:103B000040FDBDF8141080B2B94201D2791A00E02C
:103B1000C91B8AB2BDF81610814201D2401A00E0DA
:103B2000081A80B20A2A56D80A2854D8474622468C
:103B3000434650462099FCF778FCDFF8188122466E
:103B40003B46C8E90001DDE91401FCF76EFCC8E959
:103B50000201DDE9160122463B46FCF766FCC8E996
:103B60000401DDE9180122463B46FCF75EFC2246D3
:103B70003B4600E02FE0C8E90601DDE91A01FCF749
:103B800054FCC8E90801DDE91C0122463B46FCF76C
:103B90004CFCC8E90A0100215C4633462A46084627
:103BA000CDF800B0FEF71EFF2BA63046FCF710FB49
:103BB000404205EBC000C0F34F0023463246CDF82B
:103BC00000900699FFF736F82848FFF7C0FD01205E
:103BD0002BB0BDE8F08F002133462A460846CDF8C9
:103BE00000B0FEF7FFFE22A42046FCF7F1FA4042A7
:103BF00005EBC000C0F34F004F465B462246CDF8B0
:103C000000900699FFF716F81DA42046FCF7E0FA8D
:103C1000404205EBC0001021C0F34F0001EB5601FC
:103C20005B4622460097FFF705F81848FFF78FFD1F
:103C30000020CDE7546F7563682043616C69627240
:103C4000617465202E2E2E2E2E2E0000256400007D
:103C5000A08601000800002043616C6962726174F3
:103C6000652053756363656400000000400D030028
:103C700043616C696272617465206661696C000001
:103C800074727920616761696E00000040420F0024
:103C900070B5174D0646002204212846FDF779FB32
:103CA000002201212846FDF774FB0024C4F107001F
:103CB00026FA00F0C00701D0012200E00022042112
:103CC0002846FDF766FB0520FFF741FD012211465E
:103CD0002846FDF75EFB0520FFF739FD0022012194
:103CE0002846FDF756FB641CE4B2082CDED370BDF9
:103CF000001801400FB4054B10B503A9044A0298FF
:103D000000F0B6F810BC5DF814FB00005D4500083B
:103D1000700000200FB4084B10B504A902AA039844
:103D200000F0A6F8044602A9002000F042FA20465E
:103D300010BC5DF814FB0000B3410008490050EAD4
:103D4000C12018BF04204A0D18BF40F0010040F206
:103D5000FF72B2EB515F08BF40F00200012808BFBC
:103D6000052070470907090E002804DB00F1E02058
:103D700080F80014704700F00F0000F1E02080F898
:103D8000141D704700487047740000202DE9F04171
:103D90004F1E00EBC7010446D1E9000115461E463F
:103DA00037F006020DD02A463346FCF7CCFA7F1EC8
:103DB00004EBC703D3E90023FCF71EFA37F0060231
:103DC000F1D1022F25D0042F13D0062F18BFBDE844
:103DD000F0812A463346FCF7B6FAD4E90A23FCF709
:103DE0000BFA2A463346FCF7AEFAD4E90823FCF76F
:103DF00003FA2A463346FCF7A6FAD4E90623FCF771
:103E0000FBF92A463346FCF79EFAD4E90423FCF773
:103E1000F3F92A463346FCF796FAD4E90223FCF775
:103E2000EBF92A463346FCF78EFAD4E90023BDE8C5
:103E3000F041FCF7E1B90122FCF71DBDFCF7DCB94C
:103E4000024A00201107FCF716BD000001FDFFFF2C
:103E500002E008C8121F08C1002AFAD17047704753
:103E6000002001E001C1121F002AFBD170470000B1
:103E70002DE9FF4F8BB088460546002606E0252831
:103E80000BD0DDE90D1290476D1C761C28780028B8
:103E9000F5D10FB03046BDE8F08F0024A146A24610
:103EA0000122AE4900E0044315F8013F203B02FA2D
:103EB00003F00842F7D128782A2810D06FF02F029B
:103EC0002878A0F13001092915D809EB890102EB06
:103ED000410144F0020400EB01096D1CF0E758F8C1
:103EE000041B5FEA010903D544F40054C9F1000939
:103EF00044F002046D1C28782E2817D115F8010F04
:103F000044F004042A280ED06FF02F022878A0F184
:103F1000300109290AD80AEB8A0102EB410100EBC2
:103F2000010A6D1CF2E758F804AB6D1C28786C2868
:103F30000FD006DC4C2817D068280DD06A2814D181
:103F400004E0742810D07A280FD10DE044F4001456
:103F50000AE044F4801401E044F44014697881429A
:103F600002D104F580146D1C6D1C2878692865D079
:103F700006DC00288DD0632827D0642806D15DE0B8
:103F80006E2808D073282AD0752877D0DDE90D1265
:103F90009047761CE0E0C4F30250022809D00328C1
:103FA0000DD0D8F8001004280DD00E6008F10408D8
:103FB000D2E0D8F80010F217C1E90062F6E7D8F8AD
:103FC00000100E80F2E70E70F0E718F8041B8DF871
:103FD000001000208DF80100EB46012003E058F8A6
:103FE00004BB4FF0FF3061074FF0000701D40AE037
:103FF0007F1C57450DDA8742FADB1BF807100029B2
:10400000F6D106E07F1C8742FCDB1BF80710002975
:10401000F8D1DDE90D23A9EB07008146214600F028
:10402000B1F83044C61904E0DDE90D121BF8010BAC
:1040300090477F1EF8D22146484688E058F8040B86
:10404000C4F302514FF00A0B032900D100B2042936
:1040500000D140B2002802DA40422D2102E02105C1
:1040600005D52B218DF82410012104E006E0E1079D
:1040700010D02021F6E708AF089113E058F8040BA0
:10408000C4F302514FF00A0B032900D180B2042976
:1040900000D1C0B20021EEE75946FCF7BBFA30313F
:1040A00007F8011D0028F7D1ADEB070000F1200B48
:1040B000600702D524F4803401E04FF0010ADA45AC
:1040C00002DDAAEB0B0000E00020824600EB0B01B2
:1040D00008980144A9EB01000A90E00306D4DDE949
:1040E0000D2321460A9800F04DF806444FF00009D0
:1040F00008E009A911F80900DDE90D12904709F15E
:104100000109761C08998945F3DBE0030CD5DDE94C
:104110000D2321460A9800F035F8064404E0DDE955
:104120000D1230209047761CBAF10001AAF1010A65
:10413000F5DC05E0DDE90D1217F8010B9047761C60
:10414000BBF10001ABF1010BF4DC0A982146DDE97B
:104150000D2300F005F806446D1C97E609280100C0
:104160002DE9F041044600251E461746880404D474
:1041700005E039462020B0476D1C641EF9D528465D
:10418000BDE8F0812DE9F041044600251E46904629
:10419000C80301D5302700E02027880404D505E0B6
:1041A00041463846B0476D1C641EF9D52846BDE827
:1041B000F0810A68531C0B60107070472DE9F84FAE
:1041C00004460D4621F0004000917349814211DC04
:1041D0007249884201DC06D12CB120462946BDE84F
:1041E000F84FFFF728BE6E48002DCCBF6D496E49D1
:1041F000BDE8F88F6D49814211DD6D498142D8BF1C
:104200004FF0FF366DDD20462946FFF797FD042865
:1042100008BFFFF715FE20462946BDE8F88F65491F
:10422000654F25F00045814233DD6449814219DD47
:10423000002632464FF0804320462946FBF7DCFF3C
:1042400080468A46012220462946FCF714FB0022BC
:104250003B46FCF772F842465346FCF7E6F8044644
:104260000D463EE001260022BA463B46204629463E
:10427000FBF7C2FF80460F460022534620462946E0
:10428000FCF75BF842463B46FCF7CFF804460D4688
:1042900027E04B4981421BDDDFF828A102260022DE
:1042A000534620462946FCF74EF800223B46FBF7D2
:1042B000A3FF80460F460022534620462946FCF7BE
:1042C0003CF842463B46FCF7B0F804460D4608E091
:1042D000032622462B4600203B49FCF7A6F804465D
:1042E0000D4622462B4610461946FCF72CF88B4605
:1042F000824602460B46FCF726F80746024633483C
:1043000088460B4606217844FFF740FD52465B463F
:10431000FCF719F882462E488B463A46434605215B
:104320007844FFF733FD3A464346FCF70CF8024663
:104330000B46002E504659460CDAFBF75DFF22462D
:104340002B46FCF700F801B022462B46BDE8F04FA3
:10435000FBF7F6BFFBF750FF22462B46FBF7F3FFB8
:104360001C4A7A4402EBC603D3E90023FBF7E5FFBE
:1043700022462B46FBF7E1FF174A7A4402EBC603BD
:10438000D3E90023FBF7DCFF009A002AB8BF81F0D5
:104390000041BDE8F88F0000000010440000F07FED
:1043A000182D4454FB21F93FFB21F9BF0000DC3FED
:1043B0000000203E0000F33F0000F03F0000E63F19
:1043C000008003400000F83F0000F0BFBE1B00006B
:1043D0007C1B00001A1B0000E21A00002DE9F04DC2
:1043E0009446CCF1000423F000464CEA0404524FFA
:1043F00046EAD4749A46884621F00042BC4206D868
:10440000454240EA050442EAD474BC4204D9BDE8FE
:10441000F04D6246FFF712BDAAF14055A5F17F6548
:1044200055EA0C040BD0022404EAAA74434DDFF8C9
:1044300010E144EAD87452EA000B04D00CE0BDE865
:10444000F04DFFF7BBBE002C14BF012CBDE8F08D72
:10445000022C30D0032C32D056EA0C0B0AD0BE42CC
:1044600020D1BA4209D126F0804622F0804233465C
:10447000114617E000291ADB25E0DFF8C8B0FB443D
:10448000002C04BFDBE90001BDE8F08D012C02BF68
:10449000DBE9000181F00041BDE8F08D022C0AD07B
:1044A000032C0CD0BA4212D1B8F1000F0BDA23481A
:1044B0002549BDE8F08D28462449BDE8F08D284601
:1044C0007146BDE8F08D1D482149BDE8F08D921B75
:1044D00012153C2AC4BF19481D490EDCBAF1000F61
:1044E000BEBF12F13C0F0020014606DB6246FBF71F
:1044F0009CFF21F00041FFF761FE002C08BFBDE8E2
:10450000F08D012C04BF81F00041BDE8F08D114A0F
:10451000114B022C07D0FBF710FF2A46BDE8F04DE7
:104520000A4BFBF70ABFFBF708FF2A46BDE8F04D30
:10453000064BFBF705BF00000000F07F182D445428
:10454000FB2109C0761A0000FB21F9BFFB210940BD
:10455000FB21F93F075C143326A6A13C13B54FF4A9
:104560007A73012269460248FDF7EEFF00981CBDF0
:104570008004002092B0FF4D00246C60AC60FDF719
:10458000E1F9FEF763FEFEF715FDFEF7D7FCFEF737
:10459000E1FDFEF7BFFDFCF7FDFA00224FF40051EC
:1045A000F548FCF7F6FEFEF7BFFBF4A29621462085
:1045B000FEF720FBFCF78CFB4FF4FA70A860F34881
:1045C000FDF7A0FDFCF75AFDF1480460F1480460D6
:1045D000FFF7DEF90028FBD000204FF4FC6A4FF40F
:1045E000784B0A90FEF7A0FBEBA20A214620FEF7CB
:1045F00001FB1F20642300901A4628210A20FEF7A1
:10460000F1F964235E461A4628217820CDF800B0DF
:10461000FEF7E8F9642355461A46A0210A20CDF892
:1046200000A0FEF7DFF94FF6E07764231A46A021D9
:1046300078200097FEF7D6F900241F23D9A23C2149
:104640000F200094FEF7F6FA1F23D9A264211E2042
:104650000094FEF7EFFA3346D8A23C21962000944E
:10466000FEF7E8FA3346D7A264218C200094FEF7C7
:10467000E1FA2B46D5A2C8211E200094FEF7DAFAF3
:104680003B46D4A2C8218C200094FEF7D3FAC14C3B
:10469000FEF794FD05462068012802D0002DF7D0D2
:1046A00097E20A25FCE7012D06D0022D58D0032DF4
:1046B0007DD0042DF4D1FDE3FEF736FB00215546F5
:1046C0004FF4A073F0220846CDF800A0FEF78AF957
:1046D00000242B46C1A2822114200094FEF7AAFADE
:1046E0002B46C4A2B42114200094FEF7A3FAC748B5
:1046F000C7A1026801A8FFF70DFB2B4601AA96216E
:1047000078200094FEF796FAC348C1A1026801A878
:10471000FFF700FB2B4601AAC82178200094FEF782
:1047200089FA32231A460021BE200094FEF75AF976
:104730005C463223F0220021BE20CDF800B0FEF707
:1047400009FA0023F0223221BE200094FEF702FA7B
:10475000FEF764FD3168012901D00028F8D037E266
:104760000A9800287ED0FEF7DFFA4FF2DE700021B3
:1047700000904FF4A073F0220846FEF733F90020B2
:1047800008900790074606901F2064230090782227
:1047900019463C20FEF726F900241F239FA28C21F6
:1047A0005A200094FEF746FA32233C2200E0F0E360
:1047B0004FF4877949460A20CDF800B0FEF712F988
:1047C0004FF2DE70009032233C2249465020FEF723
:1047D00009F94FF491785B4693A241461420009466
:1047E000FEF728FA4FF2DE7391A241465A20009458
:1047F000FEF720FA32233C2249469620CDF800A04D
:10480000FEF7F0F853468CA24146A0200094FEF734
:1048100011FA32231A460021BE200094FEF7E2F876
:1048200047F6FF783223642200211E20CDF8008055
:10483000FEF7D8F8434682A20F2137200094FEF7F6
:10484000F9F93223F0220021BE20CDF800B0FEF7A6
:1048500081F90023F0223221BE20CDF800B0FEF70E
:1048600079F900E00EE04348C0F80440FCF72AF86C
:10487000044604287AD0012C79D0022C78D0032C5D
:1048800077D0F1E3FEF750FA4FF2DE7700214FF4D4
:10489000A073F02208460097FEF7A4F85C46322386
:1048A0003C224FF487710A20CDF800B0FEF79AF849
:1048B00032233C224FF4877150200097FEF792F884
:1048C0004FF000084FF49179234657A2494614202F
:1048D000CDF80080FEF7AEF93B4655A249465A2076
:1048E000CDF80080FEF7A6F9574632233C224FF45C
:1048F00087719620CDF800A0FEF774F83B464EA2D3
:104900004946A020CDF80080FEF794F932231A46DC
:104910000021BE20CDF80080FEF764F847F6FF774F
:104920003223642200211E200097FEF75BF83B46ED
:1049300045A20F212D20CDF80080FEF77BF9322310
:10494000F0220021BE200094FEF704F90023F0229B
:104950003221BE200094FEF7FDF8064C3CA29621C1
:104960006920C4F80480FEF745F973E032E14AE3B8
:1049700074E37AE34400002000140140496E697436
:1049800069616C697A696E672E2E2E00A40500207D
:10499000580000205C000020536D61727420576144
:1049A0007463680074656D7065726174757265001A
:1049B00068756D69646974790000000074696D65DB
:1049C00072000000636F756E7465720064726177C7
:1049D000696E6700636F6D706173730063757272E7
:1049E000656E7420484B2074656D706572617475D6
:1049F00072653A0063757272656E7420484B206868
:104A0000756D69646974793A00000000380000200F
:104A100025303264000000003C0000205365742003
:104A200054696D65000000005374617274000000E9
:104A30005061757365000000526573657400000075
:104A400054696D6572000000436F756E7465720085
:104A50003A000000AFF2080296219120FEF7CAF852
:104A60004FEA0409FEF7A4FC0446012804D0022CF6
:104A70002CD0032C7ED046E00120C9F800004FF274
:104A8000DE764FF4877832233C2241460A20009696
:104A9000FDF7A8FF5F4632233C2241465020CDF867
:104AA00000B0FDF79FFF4FF000083346AFF28802D9
:104AB0004FF4917631461420CDF80080FEF7BAF815
:104AC0003B46FDA23146CDF8008019E00026C9F82A
:104AD0000060D84632233C224FF487710A20CDF87B
:104AE00000B0FDF77FFF4FF2DE7732233C224FF418
:104AF000877150200097FDF775FF434600965AE0F6
:104B00005A20FEF797F8D9F804106426B1FBF6F0A6
:104B100006FB10124F46AFF2081102A8FFF7FAF891
:104B200002AA9621A020FEF765F878683C21B0FB28
:104B3000F6F090FBF1F290FBF1F601FB1202AFF2FE
:104B4000301102A8FFF7E6F802AA96217820FEF7B6
:104B500051F83246AFF2481102A8FFF7DBF802AA7B
:104B600096215020FEF746F8D548006801282FD03E
:104B7000042C00E005E0FFF675AF052C28D00120DD
:104B8000A5E30026C9F80460C9F800604FF48778EF
:104B900032233C2241460A20CDF800B0FDF722FF27
:104BA0004FF2DE7732233C22414650200097FDF73A
:104BB00019FF5B460096AFF290124FF49178414690
:104BC0001420FEF737F83B46BBA24146009697E714
:104BD00000257DE3FEF7A8F80024A04647463C23C5
:104BE0004622282120460094FDF7FCFE3C23462265
:104BF000282150200097FDF7F5FE3C23462228216E
:104C0000A0200097FDF7EEFE3C2346226E210020F7
:104C10000097FDF7E7FE3C2346226E2150200097C7
:104C2000FDF7E0FE3C2346226E21A0200097FDF711
:104C3000D9FE3C234622B42100200097FDF7D2FE86
:104C40003C234622B42150200097FDF7CBFE3C23A5
:104C50004622B421A0200097FDF7C4FE3C23462243
:104C6000FA2100200097FDF7BDFE3C234622FA21E1
:104C700050200097FDF7B6FE3C234622FA21A020E3
:104C80000097FDF7AFFE312246211E20FDF7EEFE14
:104C9000322246216E20FDF7E9FE33224621BE2056
:104CA000FDF7E4FE34228C211E20FDF7DFFE3522C5
:104CB0008C216E20FDF7DAFE36228C21BE20FDF716
:104CC000D5FE3722D2211E20FDF7D0FE3822D22178
:104CD0006E20FDF7CBFE3922D221BE20FDF7C6FEA5
:104CE0004FF48C79302249466E20FDF7BFFE4FF617
:104CF000FF774B463C2219461E200097FDF72AFFFE
:104D00004FF49673322249461E200097FDF722FF8A
:104D10004FF48273322249461E200097FDF71AFF96
:104D20004B46C8221946AA200097FDF713FF4FF4FF
:104D30009673B4224946C8200097FDF70BFF4FF445
:104D40008273B4224946C8200097FDF703FFAFF2F3
:104D5000403102A8079AFEF7DDFF02AA0A2150207F
:104D6000FDF748FFAFF2583102A8069AFEF7D2FFCE
:104D7000AFF224320A216420FDF73CFF02AA0A2187
:104D80006E20FDF737FFFBF7DBFD0C2853DA0A280E
:104D900048DA34B1012C0FD0022C1ED0032C2ED0B7
:104DA00047E000EB80004000192358220790194685
:104DB000CDF80080502032E007991923084407906D
:104DC0005822194600975020FDF7C4FE192360228F
:104DD00019465820CDF8008021E000EB800040000B
:104DE000192306906022194600975820FDF7B2FE5D
:104DF0001923762219466E20CDF800800FE006991F
:104E00001923084406907622194600976E20FDF774
:104E1000A1FE19237E2219467620CDF80080FDF7E9
:104E200099FE06E003D1002C0DDD641E0BE00B287B
:104E300009D1641C07E0002C7ED0012C7DD0022C0F
:104E40007CD0032C7BD06420FCF74EF9042CFFF6B9
:104E50007EAF01200890079841F27071484306998F
:104E6000002401EBC10202EB011100EB8107FDF709
:104E70005BFFD94632233C224FF487710A20CDF8DC
:104E800000B0FDF7AFFD4FF2DE70009032233C2200
:104E90004FF487715020FDF7A5FD4B46AFF27842E5
:104EA0004FF491711420CDF80080FDF7C3FE4FF24E
:104EB000DE7307E0BCE2000053746F700000000076
:104EC0005C000020AFF298424FF491715A20CDF867
:104ED0000080FDF7AFFE32233C224FF4877196200D
:104EE000CDF800A0FDF77EFD5346AFF2B4424FF47B
:104EF0009171A020CDF80080FDF79CFE47F6FF7071
:104F000000903223642200211E20FDF76BFD47F63E
:104F1000FF73AFF2D4420F213720CDF80080FDF7A8
:104F200089FE32231A460021BE20CDF80080FDF70D
:104F300059FD3223F02203E01DE02BE03BE04FE07F
:104F40000021BE20CDF80090FDF704FE0023F022E2
:104F50003221BE20CDF80090FDF7FCFDAFF21052DB
:104F600096216920FDF746FEAFF21C529621912052
:104F7000FDF740FEA9E01923582219465020CDF82C
:104F80000080FDF7E7FD192360221946582000979D
:104F900033E0A9E119235822194650200097FDF764
:104FA000D9FD1923602219465820CDF80080FDF75D
:104FB000D1FD00970FE01923602219465820009771
:104FC000FDF7C8FD19237E22194676200097FDF7CC
:104FD000C1FDCDF800801923762219466E200CE021
:104FE0001923762219466E200097FDF7B3FD192389
:104FF0007E2219467620CDF80080FDF7ABFD6420B7
:10500000FCF772F8A3E6FF4901204FF2DE79086051
:105010004FF4877832233C2241460A20CDF8009095
:10502000FDF7E0FC32233C2241465020CDF800B091
:10503000FDF7D8FC4FF000084B46AFF214624FF476
:10504000917949461420CDF80080FDF7F3FD5B46C9
:10505000AFF224624946CDF8008030E0E9494FF0D4
:105060000008C1F8008005E02CE0E6484FF0000899
:10507000C0E9008832233C224FF487710A20CDF822
:1050800000B0FDF7AFFC4FF2DE7932233C224FF443
:1050900087715020CDF80090FDF7A4FC5B46AFF27D
:1050A00078624FF491711420CDF80080FDF7C2FDB5
:1050B0004B46AFF284624FF49171CDF800805A20D4
:1050C000FDF7B8FD089801287DD1DFF838834FF04F
:1050D0006409D8F80400391AB1FBF9F209FB12127D
:1050E000AFF2D46102A8FEF715FE02AA9621A02015
:1050F000FDF780FDD8F80400391AB1FBF9F13C2026
:1051000091FBF0F291FBF0F900FB1212AFF200718B
:1051100002A8FEF7FFFD02AA96217820FDF76AFD9E
:105120004A46AFF2147102A8FEF7F4FD02AA9621D6
:105130005020FDF75FFDD8F80400874243D2FDF709
:10514000F3FD00222021B048FCF723F90021D946C5
:105150004FF4A073F0220846CDF800B0FDF742FCF2
:105160001F2000904B46A9A296215020FDF762FD1A
:105170004FF4FA784046FBF7B7FF01222021A248FE
:10518000FCF707F94046FBF7AFFF002220219E48BD
:10519000FCF7FFF84046FBF7A7FF012220219A48C1
:1051A000FCF7F7F84046FBF79FFF002220219648C6
:1051B000FCF7EFF84046FBF797FF012220219248C9
:1051C000FCF7E7F800E078E08E484FF00008C0E90F
:1051D0000088FDF7A9FD32233C224FF487710A2095
:1051E000CDF80090FDF7FEFB4FF2DE700090322309
:1051F0003C224FF487715020FDF7F4FB4B46AFF291
:10520000D8724FF491711420CDF80080FDF712FD93
:105210004FF2DE73AFF2E8724FF491715A20CDF87D
:105220000080FDF707FD32233C224FF48771962062
:10523000CDF800A0FDF7D6FB5346AFF604024FF4BD
:105240009171A020CDF80080FDF7F4FC47F6FF70C7
:1052500000903223642200211E20FDF7C3FB47F695
:10526000FF73AFF624020F213720CDF80080FDF741
:10527000E1FC32231A460021BE20CDF80080FDF764
:10528000B1FB3223F0220021BE20CDF80090FDF7C3
:1052900061FC0023F0223221BE20CDF80090FDF702
:1052A00059FCAFF6540296216920FDF7A3FCAFF636
:1052B000600296219120FDF79DFC3068012804D002
:1052C000052CFFF6D3AA062C00D1002500200A9059
:1052D000514E306801287DD03220FBF705FF002DAC
:1052E0003FF480A9FFF7DFB9FDF71EFD4FF000087E
:1052F00032231A464146BE20CDF80080FDF772FBEE
:105300005F463223F0220021BE20CDF800B0FDF729
:1053100021FC0023F0223221BE200097FDF71AFC69
:105320004FF01F091E23642200213220CDF8009087
:10533000FDF758FB4FF6FF7000901F2337A20521A1
:105340004620FDF777FC052136A20846FDF752FC02
:10535000364D2868FBF762FB04463068012800D10F
:105360000224286848B12868012809D02868022842
:1053700008D02868032808D00FE0CDF8008006E0A8
:10538000009704E0CDF800A001E0CDF800900A23DA
:105390001A4614210F20FDF725FB012C01D0D8DD82
:1053A00016E4FDF7C1FC32231A460021BE20CDF8D9
:1053B0000080FDF717FB3223F0220021BE2000976A
:1053C000FDF7C8FB0023F0223221BE200097FDF735
:1053D000C1FB00E0AFE11E23642200213220CDF8A2
:1053E0000090FDF7FFFA4FF6FF7000901F230BA20D
:1053F00005214620FDF71EFC05210AA20846FDF7FF
:10540000F9FBA6E744000020000C014054696D65DB
:1054100027732075700000005C00002052656672E2
:1054200065736800436F6C6F7200000058000020C5
:10543000FDF77AFC4FF6E07700214FF4A073F022DD
:1054400008460097FDF7CEFA70208DF82C00A020BA
:105450008DF83000012500248DF834503B46DFA242
:10546000822164200094FDF7E5FB3B46DDA2BE21CE
:1054700046200094FDF7DEFB32231A460021BE20B1
:105480000094FDF7AFFA5F463223F0220021BE20E0
:10549000CDF800B0FDF75EFB0023F0223221BE20E4
:1054A0000097FDF757FB00BFFDF7B8FED04C8146D3
:1054B000606920F480706061E06940F40010E06190
:1054C000E069012500F40010009064270BA88DE826
:1054D000A1002B4600223C21C648FCF751F90CA83C
:1054E0008DE8A10001231A463C21C248FCF748F987
:1054F0000DA88DE8A100012302223C21BD48FCF744
:105500003FF93220FBF7F0FD03A88DE8A10001234D
:1055100003223C21B748FCF70BF806A88DE8A10050
:10552000012304223C21B348FCF702F89DF818003F
:105530009DF80C10012340EA01200FFA80F804A81E
:105540008DE8A10007223C21AA48FBF7F1FF05A83E
:105550008DE8A100012308223C21A648FBF7E8FFC3
:105560009DF814009DF8101040EA0120E16900B296
:1055700021F40011E161616941F480716161616947
:1055800001F480710191FAF7BFFF05460C464046D1
:10559000FAF7BAFF2A462346FEF720FF0022964B71
:1055A000FAF7D1FE954A964BFAF73FFFFAF7CAFF92
:1055B0004FF4B47100F5B47090FBF1F201FB1204EA
:1055C000224690A10EA8FEF7A5FB00254FF6E07736
:1055D0003B460EAA822196200095FDF72BFB204624
:1055E000FAF792FFDFF82482044600224346019135
:1055F000FAF7F8FF06D320460022854B0199FAF707
:10560000D9FF03D23B4683A200956AE020460022E0
:105610007F4B0199FAF7E6FF0AD2204600227E4B23
:105620000199FAF7C7FF03D23B467CA2009575E0CB
:1056300020460022784B0199FAF7D4FF0AD220467F
:105640000022774B0199FAF7B5FF03D23B4675A2CA
:10565000009546E020460022714B0199FAF7C2FFFF
:105660000AD220460022704B0199FAF7A3FF03D219
:105670003B466EA2009551E0204600226A4B0199FC
:10568000FAF7B0FF0AD220460022694B0199FAF7D7
:1056900091FF03D23B4667A2009522E020460022FC
:1056A000634B0199FAF79EFF0AD220460022624B13
:1056B0000199FAF77FFF03D23B4660A200952DE0E7
:1056C000204600225C4B0199FAF78CFF15D2204648
:1056D00000225B4B0199FAF76DFF0ED23B4659A2AF
:1056E0000095BE219620FDF7A5FA10230822BE21C1
:1056F0009E200097FDF776F914E020460022504BDB
:105700000199FAF76FFF0DD2204600224346019916
:10571000FAF750FF06D23B464BA20095BE219620D9
:10572000FDF788FA306801283FF43AAEB9F1000F6E
:105730003FF4BAAE34E6FDF7F7FAAFF6EC42962145
:105740006920FDF757FAAFF6F842962191203BE029
:105750003E4864216FF0E0028068B0FBF1F03C4904
:10576000096808444FF4616190FBF1F404FB02F115
:1057700000EB01123C2192FBF1F54FF4616204FB56
:1057800002F1C5EB051201EB8201421AAFF680511E
:105790006846FEF7BFFA6A469621A020FDF72AFA6E
:1057A0002A46AFF694516846FEF7B4FA6A46962147
:1057B0007820FDF71FFA2246AFF6AC516846FEF797
:1057C000A9FA6A4696215020FDF714FA306801289C
:1057D000BED03220FBF788FCFEF704BF416E676C39
:1057E000653A0000446972656374696F6E3A00003F
:1057F0000010024050050020008066405045525481
:10580000FB2109402530336400000000001875407A
:10581000008036404E00000000E050404E45000041
:1058200000205C404500000000B06340534500008C
:10583000005069405300000000F06E4053570000D4
:1058400000487240570000004E57000044000020FE
:1058500040000020000000000000000000000000E8
:1058600000000000000000183C3C3C18180018180C
:1058700000000000000000666666000000000000F6
:10588000000000000000006C6CFE6C6C6CFE6C6C28
:10589000000000000018183C66060C183060663CDA
:1058A0001818000000000E1B5B6E30180C76DAD85A
:1058B000700000000000001C36361C06F66666DC30
:1058C0000000000000000018181800000000000090
:1058D000000000000000003018180C0C0C0C0C1814
:1058E000183000000000000C18183030303030182C
:1058F000180C000000000000006C38FE386C00003E
:1059000000000000000000000018187E18180000B9
:105910000000000000000000000000000000383817
:1059200030180000000000000000007E00000000B1
:1059300000000000000000000000000000003838F7
:10594000000000000000006060303018180C0C06E9
:105950000600000000000078CCECECCCDCDCCC785D
:105960000000000000000030383E30303030303071
:10597000000000000000003C66666030180C067EE7
:10598000000000000000003C666660386066663C0F
:10599000000000000000000C0C6C6C6C66FE606087
:1059A000000000000000007E0606063E6060301E1B
:1059B0000000000000000038180C3E666666663C79
:1059C000000000000000007E60303018180C0C0C45
:1059D000000000000000003C66666E3C7666663C97
:1059E000000000000000003C666666667C30181C03
:1059F00000000000000000000038380000003838C7
:105A000000000000000000000038380000003838B6
:105A1000301800000000006030180C060C183060D0
:105A2000000000000000000000007E007E0000007A
:105A300000000000000000060C18306030180C0652
:105A4000000000000000003C6666301818001818BE
:105A5000000000000000007EC3C3F3DBDBF303FEA5
:105A600000000000000000183C6666667E66666600
:105A7000000000000000003E6666663E6666663E08
:105A8000000000000000003C666606060666663CF4
:105A9000000000000000001E366666666666361E60
:105AA000000000000000007E0606063E0606067E98
:105AB000000000000000007E0606063E0606060600
:105AC000000000000000003C666606067666667C04
:105AD00000000000000000666666667E6666666618
